{
  "address": "0xD2fA487B542Ac681194A6efAEB65450D20D24442",
  "abi": [
    {
      "inputs": [],
      "stateMutability": "nonpayable",
      "type": "constructor"
    },
    {
      "anonymous": false,
      "inputs": [
        {
          "indexed": true,
          "internalType": "address",
          "name": "owner",
          "type": "address"
        },
        {
          "indexed": true,
          "internalType": "string",
          "name": "documentHash",
          "type": "string"
        },
        {
          "indexed": false,
          "internalType": "uint256",
          "name": "timestamp",
          "type": "uint256"
        },
        {
          "indexed": false,
          "internalType": "string",
          "name": "imageURI",
          "type": "string"
        },
        {
          "indexed": false,
          "internalType": "string",
          "name": "description",
          "type": "string"
        }
      ],
      "name": "DocumentNotarized",
      "type": "event"
    },
    {
      "anonymous": false,
      "inputs": [
        {
          "indexed": true,
          "internalType": "address",
          "name": "requester",
          "type": "address"
        },
        {
          "indexed": true,
          "internalType": "string",
          "name": "documentHash",
          "type": "string"
        },
        {
          "indexed": false,
          "internalType": "uint256",
          "name": "timestamp",
          "type": "uint256"
        }
      ],
      "name": "DocumentRetrieved",
      "type": "event"
    },
    {
      "anonymous": false,
      "inputs": [
        {
          "indexed": true,
          "internalType": "address",
          "name": "owner",
          "type": "address"
        },
        {
          "indexed": true,
          "internalType": "string",
          "name": "documentHash",
          "type": "string"
        },
        {
          "indexed": false,
          "internalType": "uint256",
          "name": "timestamp",
          "type": "uint256"
        }
      ],
      "name": "DocumentRevoked",
      "type": "event"
    },
    {
      "inputs": [
        {
          "internalType": "string",
          "name": "",
          "type": "string"
        }
      ],
      "name": "documents",
      "outputs": [
        {
          "internalType": "uint256",
          "name": "timestamp",
          "type": "uint256"
        },
        {
          "internalType": "address",
          "name": "owner",
          "type": "address"
        },
        {
          "internalType": "string",
          "name": "hash",
          "type": "string"
        },
        {
          "internalType": "string",
          "name": "imageURI",
          "type": "string"
        },
        {
          "internalType": "string",
          "name": "description",
          "type": "string"
        },
        {
          "internalType": "bool",
          "name": "revoked",
          "type": "bool"
        }
      ],
      "stateMutability": "view",
      "type": "function"
    },
    {
      "inputs": [],
      "name": "getAllDocuments",
      "outputs": [
        {
          "components": [
            {
              "internalType": "uint256",
              "name": "timestamp",
              "type": "uint256"
            },
            {
              "internalType": "address",
              "name": "owner",
              "type": "address"
            },
            {
              "internalType": "string",
              "name": "hash",
              "type": "string"
            },
            {
              "internalType": "string",
              "name": "imageURI",
              "type": "string"
            },
            {
              "internalType": "string",
              "name": "description",
              "type": "string"
            },
            {
              "internalType": "bool",
              "name": "revoked",
              "type": "bool"
            }
          ],
          "internalType": "struct Notary.Document[]",
          "name": "",
          "type": "tuple[]"
        }
      ],
      "stateMutability": "view",
      "type": "function"
    },
    {
      "inputs": [
        {
          "internalType": "string",
          "name": "_hash",
          "type": "string"
        },
        {
          "internalType": "string",
          "name": "_imageURI",
          "type": "string"
        },
        {
          "internalType": "string",
          "name": "_description",
          "type": "string"
        }
      ],
      "name": "notarizeDocument",
      "outputs": [],
      "stateMutability": "nonpayable",
      "type": "function"
    },
    {
      "inputs": [],
      "name": "owner",
      "outputs": [
        {
          "internalType": "address",
          "name": "",
          "type": "address"
        }
      ],
      "stateMutability": "view",
      "type": "function"
    },
    {
      "inputs": [
        {
          "internalType": "string",
          "name": "_hash",
          "type": "string"
        }
      ],
      "name": "retrieveDocument",
      "outputs": [
        {
          "components": [
            {
              "internalType": "uint256",
              "name": "timestamp",
              "type": "uint256"
            },
            {
              "internalType": "address",
              "name": "owner",
              "type": "address"
            },
            {
              "internalType": "string",
              "name": "hash",
              "type": "string"
            },
            {
              "internalType": "string",
              "name": "imageURI",
              "type": "string"
            },
            {
              "internalType": "string",
              "name": "description",
              "type": "string"
            },
            {
              "internalType": "bool",
              "name": "revoked",
              "type": "bool"
            }
          ],
          "internalType": "struct Notary.Document",
          "name": "",
          "type": "tuple"
        }
      ],
      "stateMutability": "view",
      "type": "function"
    },
    {
      "inputs": [
        {
          "internalType": "string",
          "name": "_hash",
          "type": "string"
        }
      ],
      "name": "revokeDocument",
      "outputs": [],
      "stateMutability": "nonpayable",
      "type": "function"
    },
    {
      "inputs": [
        {
          "internalType": "address",
          "name": "",
          "type": "address"
        },
        {
          "internalType": "uint256",
          "name": "",
          "type": "uint256"
        }
      ],
      "name": "userDocuments",
      "outputs": [
        {
          "internalType": "string",
          "name": "",
          "type": "string"
        }
      ],
      "stateMutability": "view",
      "type": "function"
    },
    {
      "inputs": [
        {
          "internalType": "string",
          "name": "_hash",
          "type": "string"
        }
      ],
      "name": "verifyDocument",
      "outputs": [
        {
          "internalType": "uint256",
          "name": "",
          "type": "uint256"
        },
        {
          "internalType": "address",
          "name": "",
          "type": "address"
        },
        {
          "internalType": "string",
          "name": "",
          "type": "string"
        },
        {
          "internalType": "string",
          "name": "",
          "type": "string"
        },
        {
          "internalType": "bool",
          "name": "",
          "type": "bool"
        }
      ],
      "stateMutability": "view",
      "type": "function"
    }
  ],
  "transactionHash": "0x26daa2534156767eb81cbe7ed0cab0a983f3c131f3d7c6ea8a8f95666f8f6ed0",
  "args": [],
  "numDeployments": 3,
  "solcInputHash": "20e595d6541156c605f7323ed2d7e191",
  "bytecode": "0x608060405234801561001057600080fd5b50336000806101000a81548173ffffffffffffffffffffffffffffffffffffffff021916908373ffffffffffffffffffffffffffffffffffffffff160217905550611d3e806100606000396000f3fe608060405234801561001057600080fd5b50600436106100885760003560e01c80639fa5f50b1161005b5780639fa5f50b14610127578063a46d0ad614610145578063b3dd697b14610161578063beee5eb71461019657610088565b8063029ba59b1461008d578063577a1b92146100a95780635aa338f4146100d95780638da5cb5b14610109575b600080fd5b6100a760048036038101906100a291906113c4565b6101ca565b005b6100c360048036038101906100be9190611388565b61038c565b6040516100d0919061188a565b60405180910390f35b6100f360048036038101906100ee91906113c4565b610445565b604051610100919061190c565b60405180910390f35b6101116106ae565b60405161011e919061184d565b60405180910390f35b61012f6106d2565b60405161013c9190611868565b60405180910390f35b61015f600480360381019061015a9190611405565b610b6d565b005b61017b600480360381019061017691906113c4565b610de6565b60405161018d969594939291906119aa565b60405180910390f35b6101b060048036038101906101ab91906113c4565b610ffd565b6040516101c1959493929190611949565b60405180910390f35b803373ffffffffffffffffffffffffffffffffffffffff166001826040516101f29190611836565b908152602001604051809103902060010160009054906101000a900473ffffffffffffffffffffffffffffffffffffffff1673ffffffffffffffffffffffffffffffffffffffff161461027a576040517f08c379a0000000000000000000000000000000000000000000000000000000008152600401610271906118cc565b60405180910390fd5b8160018160405161028b9190611836565b908152602001604051809103902060050160009054906101000a900460ff16156102ea576040517f08c379a00000000000000000000000000000000000000000000000000000000081526004016102e1906118ec565b60405180910390fd5b600180846040516102fb9190611836565b908152602001604051809103902060050160006101000a81548160ff021916908315150217905550826040516103319190611836565b60405180910390203373ffffffffffffffffffffffffffffffffffffffff167f232011ba6d545e8e8f05c68183f32de302454dd4e75ab5fc1ab88a9db176c81e4260405161037f919061192e565b60405180910390a3505050565b600260205281600052604060002081815481106103a857600080fd5b906000526020600020016000915091505080546103c490611bc1565b80601f01602080910402602001604051908101604052809291908181526020018280546103f090611bc1565b801561043d5780601f106104125761010080835404028352916020019161043d565b820191906000526020600020905b81548152906001019060200180831161042057829003601f168201915b505050505081565b61044d611205565b60018260405161045d9190611836565b90815260200160405180910390206040518060c0016040529081600082015481526020016001820160009054906101000a900473ffffffffffffffffffffffffffffffffffffffff1673ffffffffffffffffffffffffffffffffffffffff1673ffffffffffffffffffffffffffffffffffffffff1681526020016002820180546104e690611bc1565b80601f016020809104026020016040519081016040528092919081815260200182805461051290611bc1565b801561055f5780601f106105345761010080835404028352916020019161055f565b820191906000526020600020905b81548152906001019060200180831161054257829003601f168201915b5050505050815260200160038201805461057890611bc1565b80601f01602080910402602001604051908101604052809291908181526020018280546105a490611bc1565b80156105f15780601f106105c6576101008083540402835291602001916105f1565b820191906000526020600020905b8154815290600101906020018083116105d457829003601f168201915b5050505050815260200160048201805461060a90611bc1565b80601f016020809104026020016040519081016040528092919081815260200182805461063690611bc1565b80156106835780601f1061065857610100808354040283529160200191610683565b820191906000526020600020905b81548152906001019060200180831161066657829003601f168201915b505050505081526020016005820160009054906101000a900460ff1615151515815250509050919050565b60008054906101000a900473ffffffffffffffffffffffffffffffffffffffff1681565b60606000600260003373ffffffffffffffffffffffffffffffffffffffff1673ffffffffffffffffffffffffffffffffffffffff16815260200190815260200160002080549050905060008167ffffffffffffffff81111561075d577f4e487b7100000000000000000000000000000000000000000000000000000000600052604160045260246000fd5b60405190808252806020026020018201604052801561079657816020015b610783611205565b81526020019060019003908161077b5790505b50905060005b82811015610b64576000600260003373ffffffffffffffffffffffffffffffffffffffff1673ffffffffffffffffffffffffffffffffffffffff168152602001908152602001600020828154811061081d577f4e487b7100000000000000000000000000000000000000000000000000000000600052603260045260246000fd5b90600052602060002001805461083290611bc1565b80601f016020809104026020016040519081016040528092919081815260200182805461085e90611bc1565b80156108ab5780601f10610880576101008083540402835291602001916108ab565b820191906000526020600020905b81548152906001019060200180831161088e57829003601f168201915b505050505090506001816040516108c29190611836565b90815260200160405180910390206040518060c0016040529081600082015481526020016001820160009054906101000a900473ffffffffffffffffffffffffffffffffffffffff1673ffffffffffffffffffffffffffffffffffffffff1673ffffffffffffffffffffffffffffffffffffffff16815260200160028201805461094b90611bc1565b80601f016020809104026020016040519081016040528092919081815260200182805461097790611bc1565b80156109c45780601f10610999576101008083540402835291602001916109c4565b820191906000526020600020905b8154815290600101906020018083116109a757829003601f168201915b505050505081526020016003820180546109dd90611bc1565b80601f0160208091040260200160405190810160405280929190818152602001828054610a0990611bc1565b8015610a565780601f10610a2b57610100808354040283529160200191610a56565b820191906000526020600020905b815481529060010190602001808311610a3957829003601f168201915b50505050508152602001600482018054610a6f90611bc1565b80601f0160208091040260200160405190810160405280929190818152602001828054610a9b90611bc1565b8015610ae85780601f10610abd57610100808354040283529160200191610ae8565b820191906000526020600020905b815481529060010190602001808311610acb57829003601f168201915b505050505081526020016005820160009054906101000a900460ff161515151581525050838381518110610b45577f4e487b7100000000000000000000000000000000000000000000000000000000600052603260045260246000fd5b6020026020010181905250508080610b5c90611bf3565b91505061079c565b50809250505090565b6000600184604051610b7f9190611836565b90815260200160405180910390206000015414610bd1576040517f08c379a0000000000000000000000000000000000000000000000000000000008152600401610bc8906118ac565b60405180910390fd5b6040518060c001604052804281526020013373ffffffffffffffffffffffffffffffffffffffff16815260200184815260200183815260200182815260200160001515815250600184604051610c279190611836565b90815260200160405180910390206000820151816000015560208201518160010160006101000a81548173ffffffffffffffffffffffffffffffffffffffff021916908373ffffffffffffffffffffffffffffffffffffffff1602179055506040820151816002019080519060200190610ca2929190611253565b506060820151816003019080519060200190610cbf929190611253565b506080820151816004019080519060200190610cdc929190611253565b5060a08201518160050160006101000a81548160ff021916908315150217905550905050600260003373ffffffffffffffffffffffffffffffffffffffff1673ffffffffffffffffffffffffffffffffffffffff16815260200190815260200160002083908060018154018082558091505060019003906000526020600020016000909190919091509080519060200190610d78929190611253565b5082604051610d879190611836565b60405180910390203373ffffffffffffffffffffffffffffffffffffffff167f4b96a3e6a81d384b9c9e5675b71f69d7549d9e579f9a9042bc206576f8b21607428585604051610dd993929190611a20565b60405180910390a3505050565b6001818051602081018201805184825260208301602085012081835280955050505050506000915090508060000154908060010160009054906101000a900473ffffffffffffffffffffffffffffffffffffffff1690806002018054610e4b90611bc1565b80601f0160208091040260200160405190810160405280929190818152602001828054610e7790611bc1565b8015610ec45780601f10610e9957610100808354040283529160200191610ec4565b820191906000526020600020905b815481529060010190602001808311610ea757829003601f168201915b505050505090806003018054610ed990611bc1565b80601f0160208091040260200160405190810160405280929190818152602001828054610f0590611bc1565b8015610f525780601f10610f2757610100808354040283529160200191610f52565b820191906000526020600020905b815481529060010190602001808311610f3557829003601f168201915b505050505090806004018054610f6790611bc1565b80601f0160208091040260200160405190810160405280929190818152602001828054610f9390611bc1565b8015610fe05780601f10610fb557610100808354040283529160200191610fe0565b820191906000526020600020905b815481529060010190602001808311610fc357829003601f168201915b5050505050908060050160009054906101000a900460ff16905086565b60008060608060006001866040516110159190611836565b9081526020016040518091039020600001546001876040516110379190611836565b908152602001604051809103902060010160009054906101000a900473ffffffffffffffffffffffffffffffffffffffff166001886040516110799190611836565b908152602001604051809103902060030160018960405161109a9190611836565b908152602001604051809103902060040160018a6040516110bb9190611836565b908152602001604051809103902060050160009054906101000a900460ff168280546110e690611bc1565b80601f016020809104026020016040519081016040528092919081815260200182805461111290611bc1565b801561115f5780601f106111345761010080835404028352916020019161115f565b820191906000526020600020905b81548152906001019060200180831161114257829003601f168201915b5050505050925081805461117290611bc1565b80601f016020809104026020016040519081016040528092919081815260200182805461119e90611bc1565b80156111eb5780601f106111c0576101008083540402835291602001916111eb565b820191906000526020600020905b8154815290600101906020018083116111ce57829003601f168201915b505050505091509450945094509450945091939590929450565b6040518060c0016040528060008152602001600073ffffffffffffffffffffffffffffffffffffffff1681526020016060815260200160608152602001606081526020016000151581525090565b82805461125f90611bc1565b90600052602060002090601f01602090048101928261128157600085556112c8565b82601f1061129a57805160ff19168380011785556112c8565b828001600101855582156112c8579182015b828111156112c75782518255916020019190600101906112ac565b5b5090506112d591906112d9565b5090565b5b808211156112f25760008160009055506001016112da565b5090565b600061130961130484611a96565b611a65565b90508281526020810184848401111561132157600080fd5b61132c848285611b7f565b509392505050565b60008135905061134381611cda565b92915050565b600082601f83011261135a57600080fd5b813561136a8482602086016112f6565b91505092915050565b60008135905061138281611cf1565b92915050565b6000806040838503121561139b57600080fd5b60006113a985828601611334565b92505060206113ba85828601611373565b9150509250929050565b6000602082840312156113d657600080fd5b600082013567ffffffffffffffff8111156113f057600080fd5b6113fc84828501611349565b91505092915050565b60008060006060848603121561141a57600080fd5b600084013567ffffffffffffffff81111561143457600080fd5b61144086828701611349565b935050602084013567ffffffffffffffff81111561145d57600080fd5b61146986828701611349565b925050604084013567ffffffffffffffff81111561148657600080fd5b61149286828701611349565b9150509250925092565b60006114a883836116ea565b905092915050565b6114b981611b37565b82525050565b6114c881611b37565b82525050565b60006114d982611ad6565b6114e38185611af9565b9350836020820285016114f585611ac6565b8060005b858110156115315784840389528151611512858261149c565b945061151d83611aec565b925060208a019950506001810190506114f9565b50829750879550505050505092915050565b61154c81611b49565b82525050565b61155b81611b49565b82525050565b600061156c82611ae1565b6115768185611b0a565b9350611586818560208601611b8e565b61158f81611cc9565b840191505092915050565b60006115a582611ae1565b6115af8185611b1b565b93506115bf818560208601611b8e565b6115c881611cc9565b840191505092915050565b60006115de82611ae1565b6115e88185611b2c565b93506115f8818560208601611b8e565b80840191505092915050565b6000611611601a83611b1b565b91507f446f63756d656e7420616c7265616479206e6f746172697a65640000000000006000830152602082019050919050565b6000611651602683611b1b565b91507f596f7520617265206e6f7420746865206f776e6572206f66207468697320646f60008301527f63756d656e7400000000000000000000000000000000000000000000000000006020830152604082019050919050565b60006116b7601e83611b1b565b91507f5468697320646f63756d656e7420686173206265656e207265766f6b656400006000830152602082019050919050565b600060c0830160008301516117026000860182611818565b50602083015161171560208601826114b0565b506040830151848203604086015261172d8282611561565b915050606083015184820360608601526117478282611561565b915050608083015184820360808601526117618282611561565b91505060a083015161177660a0860182611543565b508091505092915050565b600060c0830160008301516117996000860182611818565b5060208301516117ac60208601826114b0565b50604083015184820360408601526117c48282611561565b915050606083015184820360608601526117de8282611561565b915050608083015184820360808601526117f88282611561565b91505060a083015161180d60a0860182611543565b508091505092915050565b61182181611b75565b82525050565b61183081611b75565b82525050565b600061184282846115d3565b915081905092915050565b600060208201905061186260008301846114bf565b92915050565b6000602082019050818103600083015261188281846114ce565b905092915050565b600060208201905081810360008301526118a4818461159a565b905092915050565b600060208201905081810360008301526118c581611604565b9050919050565b600060208201905081810360008301526118e581611644565b9050919050565b60006020820190508181036000830152611905816116aa565b9050919050565b600060208201905081810360008301526119268184611781565b905092915050565b60006020820190506119436000830184611827565b92915050565b600060a08201905061195e6000830188611827565b61196b60208301876114bf565b818103604083015261197d818661159a565b90508181036060830152611991818561159a565b90506119a06080830184611552565b9695505050505050565b600060c0820190506119bf6000830189611827565b6119cc60208301886114bf565b81810360408301526119de818761159a565b905081810360608301526119f2818661159a565b90508181036080830152611a06818561159a565b9050611a1560a0830184611552565b979650505050505050565b6000606082019050611a356000830186611827565b8181036020830152611a47818561159a565b90508181036040830152611a5b818461159a565b9050949350505050565b6000604051905081810181811067ffffffffffffffff82111715611a8c57611a8b611c9a565b5b8060405250919050565b600067ffffffffffffffff821115611ab157611ab0611c9a565b5b601f19601f8301169050602081019050919050565b6000819050602082019050919050565b600081519050919050565b600081519050919050565b6000602082019050919050565b600082825260208201905092915050565b600082825260208201905092915050565b600082825260208201905092915050565b600081905092915050565b6000611b4282611b55565b9050919050565b60008115159050919050565b600073ffffffffffffffffffffffffffffffffffffffff82169050919050565b6000819050919050565b82818337600083830152505050565b60005b83811015611bac578082015181840152602081019050611b91565b83811115611bbb576000848401525b50505050565b60006002820490506001821680611bd957607f821691505b60208210811415611bed57611bec611c6b565b5b50919050565b6000611bfe82611b75565b91507fffffffffffffffffffffffffffffffffffffffffffffffffffffffffffffffff821415611c3157611c30611c3c565b5b600182019050919050565b7f4e487b7100000000000000000000000000000000000000000000000000000000600052601160045260246000fd5b7f4e487b7100000000000000000000000000000000000000000000000000000000600052602260045260246000fd5b7f4e487b7100000000000000000000000000000000000000000000000000000000600052604160045260246000fd5b6000601f19601f8301169050919050565b611ce381611b37565b8114611cee57600080fd5b50565b611cfa81611b75565b8114611d0557600080fd5b5056fea264697066735822122072de22170d06e258787ed8e1301215ffc4ccc37e381f238241e26ca93b27ccf364736f6c63430008000033",
  "devdoc": {
    "kind": "dev",
    "methods": {},
    "version": 1
  },
  "userdoc": {
    "kind": "user",
    "methods": {},
    "version": 1
  },
  "storageLayout": {
    "storage": [
      {
        "astId": 3,
        "contract": "contracts/Notary.sol:Notary",
        "label": "owner",
        "offset": 0,
        "slot": "0",
        "type": "t_address"
      },
      {
        "astId": 21,
        "contract": "contracts/Notary.sol:Notary",
        "label": "documents",
        "offset": 0,
        "slot": "1",
        "type": "t_mapping(t_string_memory_ptr,t_struct(Document)16_storage)"
      },
      {
        "astId": 26,
        "contract": "contracts/Notary.sol:Notary",
        "label": "userDocuments",
        "offset": 0,
        "slot": "2",
        "type": "t_mapping(t_address,t_array(t_string_storage)dyn_storage)"
      }
    ],
    "types": {
      "t_address": {
        "encoding": "inplace",
        "label": "address",
        "numberOfBytes": "20"
      },
      "t_array(t_string_storage)dyn_storage": {
        "base": "t_string_storage",
        "encoding": "dynamic_array",
        "label": "string[]",
        "numberOfBytes": "32"
      },
      "t_bool": {
        "encoding": "inplace",
        "label": "bool",
        "numberOfBytes": "1"
      },
      "t_mapping(t_address,t_array(t_string_storage)dyn_storage)": {
        "encoding": "mapping",
        "key": "t_address",
        "label": "mapping(address => string[])",
        "numberOfBytes": "32",
        "value": "t_array(t_string_storage)dyn_storage"
      },
      "t_mapping(t_string_memory_ptr,t_struct(Document)16_storage)": {
        "encoding": "mapping",
        "key": "t_string_memory_ptr",
        "label": "mapping(string => struct Notary.Document)",
        "numberOfBytes": "32",
        "value": "t_struct(Document)16_storage"
      },
      "t_string_memory_ptr": {
        "encoding": "bytes",
        "label": "string",
        "numberOfBytes": "32"
      },
      "t_string_storage": {
        "encoding": "bytes",
        "label": "string",
        "numberOfBytes": "32"
      },
      "t_struct(Document)16_storage": {
        "encoding": "inplace",
        "label": "struct Notary.Document",
        "members": [
          {
            "astId": 5,
            "contract": "contracts/Notary.sol:Notary",
            "label": "timestamp",
            "offset": 0,
            "slot": "0",
            "type": "t_uint256"
          },
          {
            "astId": 7,
            "contract": "contracts/Notary.sol:Notary",
            "label": "owner",
            "offset": 0,
            "slot": "1",
            "type": "t_address"
          },
          {
            "astId": 9,
            "contract": "contracts/Notary.sol:Notary",
            "label": "hash",
            "offset": 0,
            "slot": "2",
            "type": "t_string_storage"
          },
          {
            "astId": 11,
            "contract": "contracts/Notary.sol:Notary",
            "label": "imageURI",
            "offset": 0,
            "slot": "3",
            "type": "t_string_storage"
          },
          {
            "astId": 13,
            "contract": "contracts/Notary.sol:Notary",
            "label": "description",
            "offset": 0,
            "slot": "4",
            "type": "t_string_storage"
          },
          {
            "astId": 15,
            "contract": "contracts/Notary.sol:Notary",
            "label": "revoked",
            "offset": 0,
            "slot": "5",
            "type": "t_bool"
          }
        ],
        "numberOfBytes": "192"
      },
      "t_uint256": {
        "encoding": "inplace",
        "label": "uint256",
        "numberOfBytes": "32"
      }
    }
  }
}